:020000040800F2
:10000000F08A0020F5020008074400080D430008AC
:1000100005440008FD280008954A0008000000007B
:100020000000000000000000000000000B44000879
:100030007B2A00080000000009440008A5440008CD
:100040000F0300080F0300080F0300080F03000848
:100050000F0300080F0300080F0300080F03000838
:100060000F0300080F0300080F0300080F03000828
:100070000F0300080F0300080F0300080F03000818
:100080000F0300080F0300080F0300080F03000808
:100090000F0300080F0300080F0300080F030008F8
:1000A0000F0300080F0300080F0300080F030008E8
:1000B0000F0300080F0300080F0300080F030008D8
:1000C0000F0300080F0300080F0300080F030008C8
:1000D0000F030008894A00080F0300080F030008F7
:1000E0000F0300080F0300080F0300080F030008A8
:1000F0000F0300080F0300080F0300080F03000898
:100100000F0300080F0300080F0300080F03000887
:100110000F0300080F0300080F0300080F03000877
:10012000352900080F0300080F0300080F0300081B
:100130000F0300080F0300080F0300080F03000857
:100140000F0300080F0300080F0300080F03000847
:100150000F0300080F0300080F0300080F03000837
:100160000F0300080F0300080F0300080F03000827
:100170000F0300080F0300080F0300080000000031
:100180000F0300080F03000800F002F800F0A2F8C7
:100190000AA090E8000C82448344AAF10107DA45E2
:1001A00001D100F097F8AFF2090EBAE80F0013F092
:1001B000010F18BFFB1A43F00103184784E4000045
:1001C000A4E400000A4410F8014B14F00F0508BF26
:1001D00010F8015B240908BF10F8014B6D1E05D013
:1001E00010F8013B6D1E01F8013BF9D1641E03D0EC
:1001F000641E01F8015BFBD19142E4D3704700001B
:100200000023002400250026103A28BF78C1FBD81F
:10021000520728BF30C148BF0B6070476E2900F0FD
:100220001B86702900F06587662905F057806529CF
:1002300005F05480672905F05180612905F0508050
:1002400003681B0A28BF41F08001692900F0C885B6
:10025000642900F0C585752900F0C2856F2900F07A
:10026000F286782900F03187E92900F08D86E429AB
:1002700000F08A86F52900F08786EF2900F0EF86E6
:10028000F82900F030870368DB0928BF41F08001BE
:10029000632901F03784732901F03C84E32901F0DC
:1002A0004784F32901F04C84002070471FB504F007
:1002B00061FF01F09BFC04000020002104F084FD9C
:1002C000401C60600020002104F068FDE0601FBD5C
:1002D00010B510BD01F05CFC1146FFF7E7FF04F01C
:1002E00003FD01F039FD03B4FFF7F2FF03BC04F096
:1002F000D8FC00000948804709480047FEE7FEE7B0
:10030000FEE7FEE7FEE7FEE7FEE7FEE7FEE7FEE7C5
:1003100004480549054A064B70470000054500089A
:1003200089010008F0720020F08A0020F07A002095
:10033000F07A00209FED1A1AF5EE000A40EE010A4D
:10034000BDEEE00AF5EEC00A10EE100AF1EE10FA6A
:1003500038BF401E00EE100A1349F7EE001AB8EE3F
:10036000C00A30EEC00ADFED0F0A20EE200AFCEED4
:10037000C00A10EE900AC0F3080000EE900A01EBEC
:100380008000F8EE600A90ED011A70EE600A90EDC0
:10039000000A71EEE01A21EE800A00EE810A704731
:1003A00083F9223E0000004434DC00089FED3D0A42
:1003B0005FEA920C57D000BFD0ED000A90ED011A11
:1003C0000B1D60EEA00A083041EE010AF5EEC00AEE
:1003D000F1EE10FAA6BFB1EEE01A81ED001A81ED40
:1003E000000AD0ED000A90ED011A191D60EEA00A76
:1003F000083041EE010AF5EEC00AF1EE10FAA6BF90
:10040000B1EEE01A83ED001A83ED000AD0ED000A88
:1004100090ED011A0B1D60EEA00A083041EE010AB2
:10042000F5EEC00AF1EE10FAA6BFB1EEE01A81EDCA
:10043000001A81ED000A90ED001AD0ED010A191D95
:1004400021EE011A083000EEA01AB5EEC01AF1EE46
:1004500010FAA6BFF1EEC10AC3ED000A83ED000A4F
:10046000BCF1010CA8D112F0030208BF704700BF15
:10047000D0ED000A90ED011A0B4660EEA00A091DAE
:10048000083041EE010AF5EEC00AF1EE10FAA6BFFF
:10049000B1EEE01A83ED001A83ED000A521EE7D197
:1004A00070470000000000002DE9F00F5FEA510CDA
:1004B00032D0044600EBCC0516466746D4ED012A3F
:1004C00095ED012AD4ED001A95ED001A32EEC20A1C
:1004D00032EE222A71EEC10AD6ED003AD6ED012A9B
:1004E00031EE811A23EEA03A22EE804A23EE800AF2
:1004F00062EEA00A84ED001A33EE041A84ED012A9C
:1005000030EE600A85ED001A083485ED010A0835E1
:1005100006EBC3067F1ED1D14FF6FF7A0AEA430BE2
:10052000E146BCF1020F44D966464FF000084FEA9D
:100530005C0C444602EBC803D84493ED001AD3ED9B
:10054000010A234603EB0C0700EBC30500EBC707CA
:10055000D5ED001A97ED000A95ED012AD7ED012A95
:1005600031EE803A31EEC00A72EE621A72EE822AE1
:1005700085ED003A20EE012A61EEA03A61EE811A83
:1005800020EE200AC5ED012A32EE232A334431EE53
:10059000C00A87ED002A8B4287ED010AD2D3641C82
:1005A000A445C7D84FEA59090AEA4B0BB9F1020F23
:1005B000BAD8002919BF491C5FEA5101BDE8F00F04
:1005C000704700BF90ED002AD0ED021A90ED011A9D
:1005D000D0ED032A32EE610A72EE211A71EE620A40
:1005E00032EE811AC0ED001A80ED011A80ED020A88
:1005F000C0ED030A1030491EE4D1BDE8F00F70478A
:100600002DE9F00F5FEA5109CC4633D0044600EBE8
:10061000CC0516464FEA090794ED002AD5ED001ADD
:1006200094ED013AD5ED012A72EE610AD6ED004A49
:1006300033EE621AD6ED013A72EE832A24EEA03A26
:1006400023EE814A72EE211A24EE811A63EEA00A8B
:10065000C4ED001A73EE441AC4ED012A71EE200AAB
:10066000C5ED001A0834C5ED010A083506EBC306CE
:100670007F1ED1D14FF6FF7A0AEA430BB9F1020F80
:1006800045D967464FF000084FEA5C0C4FEA080571
:1006900002EBC803D844D3ED001A93ED011A2B46A0
:1006A00003EB0C0400EBC30600EBC40496ED002A38
:1006B000D4ED000A96ED013AD4ED012A72EE203A0B
:1006C00072EE600A33EE622A32EE834AC6ED003AD9
:1006D00060EEA12A22EE013A22EE212A60EE810A82
:1006E00086ED014A72EEC32A3B4472EE200AC4ED45
:1006F000002A8B42C4ED010AD2D36D1CAC45C7D889
:100700004FEA59090AEA4B0BB9F1020FB9D800298F
:1007100019BF491C5FEA5101BDE8F00F704700BFE7
:10072000D0ED002A90ED022A90ED031A90ED013AE7
:1007300072EEC20A32EE822A60EE801A71EE030A6D
:1007400033EE411A22EE002A60EE800A21EE001AF2
:1007500080ED002AC0ED010AC0ED021A80ED031AF7
:100760001030491EDCD1BDE8F00F704770B504466B
:100770000D4680782188A389626801280ED028461A
:10078000FFF792FEE078012818BF70BDE28921884A
:100790002846A368BDE8704000F00CB994ED040A47
:1007A0002846FFF72DFFEDE710B40180384C446078
:1007B00082704FF0000CC370B1F5807F3AD008DC36
:1007C000102959D020294DD0402943D0802939D033
:1007D0000BE0B1F5007F25D0B1F5806F1AD0B1F5EF
:1007E000006F0FD0B1F5805F04D04FF0FF3C10BC1C
:1007F0006046704701218181C18126499FED260A0B
:10080000816036E002218181C18124499FED240A63
:1008100081602EE004218181C18122499FED220A5D
:10082000816026E008218181C18120499FED200A55
:1008300081601EE010218181C1811E499FED1E0A49
:10084000816016E020218181C1811C499FED1C0A35
:1008500081600EE040218181C1811A499FED1A0A11
:10086000816006E080218181C18118499FED180ACD
:10087000816080ED040ABAE74FF480718181C18103
:1008800014499FED150A816080ED040AAFE700006E
:10089000345C0008345400080000803936540008E5
:1008A0000000003A3A5400080000803A4254000820
:1008B0000000003B525400080000803B72540008C6
:1008C0000000003CB25400080000803C3255000893
:1008D0000000003D325600080000803D70B44FF02B
:1008E000000CB0EC010A4E1E6446B50831D000BFC2
:1008F000D0ED000A90ED011A0830B4EEE00AF1EEF6
:1009000010FA3CBFB0EE600A0CF10104F0EC010AF1
:10091000B4EEC10AF1EE10FA3CBFB0EE410A0CF1A0
:100920000204B0EC011AB4EEE00AF1EE10FA3CBF9A
:10093000B0EE600A0CF10304B4EEC10AF1EE10FA55
:100940003CBFB0EE410A0CF104046D1E0CF1040C26
:10095000CED106F0030C5FEA0C0617D0B6F1004FBB
:1009600019D2002EC8BF002510DD00BFD0ED000A4F
:10097000F4EEC00AF1EE10FA04DD4C19B0EE600A94
:10098000A4EB0C04001D6D1C761EEFD182ED000A55
:100990001C6070BC7047F0EC010AB4EEE00AF1EEA6
:1009A00010FA3CBFB0EE600AA1EB0C04BCF1010CE4
:1009B000F1D1EBE72DE9F0014E0801244FF0000CD6
:1009C00004EB51076146A6F102082CE061452AD2EA
:1009D00000EBCC0500EBC104D5ED000A94ED000A54
:1009E000C4ED000A85ED000AD5ED010A94ED010A77
:1009F000C4ED010A85ED010ACC1900EBC4050CEB2E
:100A0000070400EBC40495ED000AD4ED000AC5ED1F
:100A1000000A84ED000AD4ED010A95ED010AC5ED46
:100A2000010A84ED010A00EBC104B44400EBCC0CD4
:100A300094ED020ADCED000A891CC4ED020A8CED7B
:100A4000000ADCED010A94ED030AC4ED030A8CED03
:100A5000010AB3F800C089B203EB42034145B5D99E
:100A6000BDE8F00170472DE9F0074D0801244FF073
:100A7000000C04EB51066146A5F102082BE061452C
:100A800029D250F8314050F83C7040F8317040F8AD
:100A90003C4000EBC10900EBCC04D9F80470D4F859
:100AA00004A0C9F804A067608C190CEB060750F885
:100AB000349050F837A040F834A040F8379000EB5D
:100AC000C40400EBC707D4F80490D7F804A0C4F816
:100AD00004A0C7F8049000EBC104AC44A76850F828
:100AE0003C90C4F8089040F83C7000EBCC0CE768F0
:100AF000DCF80490C4F80C90CCF80470B3F800C093
:100B0000891C03EB42034145B9D9BDE8F0077047A2
:100B10002DE9F00F01244F0804EB51084FF0000CB1
:100B20007C0804BFBDE8F00F7047014600EB880564
:100B3000002614E0BCEB460F11D950F82CA0D1F8D8
:100B40000090C1F800A040F82C900CEB0809D5F8F3
:100B500000A050F829B0C5F800B040F829A0BC4466
:100B600051F8049F50F82CA041F804AB40F82C90A9
:100B7000B3F800C003EB4203641E05F1080506F15B
:100B80000106D7D1BDE8F00F7047704753EA020C59
:100B900000F069802DE9F04B4FF00006002B1FBFDD
:100BA000B3FA83F503FA05F424FA05F65E4012BFA2
:100BB0001643B2FA82F502FA05F4C5F120051EBF0C
:100BC00022FA05FC44EA0C04203556EA044C4FEAAC
:100BD000144418BF641C4FF000084FF00009904205
:100BE00071EB030C39D3002919BFB1FA81F701FA6F
:100BF00007F6B0FA80F700FA07F6C7F120071EBF24
:100C000020FA07FC46EA0C062037B6FBF4FCA7EBFB
:100C10000507103F07F01F0BCBF120060CFA0BFB6A
:100C20002CFA06F644BFB3460026202FA4BF5E462A
:100C30004FF0000B5BEA060C08BF4FF0010B19EBFD
:100C40000B09ABFB027C48EB0608C01B06FB02CC81
:100C50000BFB03CC71EB0C01C1E70B46024641468E
:100C60004846BDE8F08B13B54FF000004FF000018F
:100C7000AFF30080BDE81C40704700007CB51D4606
:100C800016460C00009001D02044401E074B7B44C8
:100C90002A4669460190304600F0F7F805461CB137
:100CA0000020694600F004F928467CBD29020000B6
:100CB0004FF0000200B5134694469646203922BFF5
:100CC000A0E80C50A0E80C50B1F12001BFF4F7AF40
:100CD000090728BFA0E80C5048BF0CC05DF804EB22
:100CE000890028BF40F8042B08BF704748BF20F890
:100CF000022B11F0804F18BF00F8012B704770478E
:100D000070477047704710B500F0C2FA006810BD18
:100D100010B5044600F0BCFA046010BD70B504467E
:100D200085690068C10601D5302600E02026C0078D
:100D300007D070BDD4E9012130469047206A401C9D
:100D400020626D1EF6D570BD70B5044685690078C9
:100D5000C00707D170BDD4E9012120209047206A47
:100D6000401C20626D1EF6D570BD09684A0501D58C
:100D700040B27047C905FCD500B2704709684A0502
:100D800001D5C0B27047C905FCD580B2704770B5B7
:100D90000C460546012A05D02878800600D5EA6968
:100DA000002302E0012305E05B1C934202D2E05CD9
:100DB0000028F9D1A869E618C01AA861286A184461
:100DC00028622846FFF7AAFF04E0D5E9012114F8BC
:100DD000010B9047B442F8D32846FFF7B5FF70BD2A
:100DE0002DE9F0410646002410687529314616A504
:100DF00010D0FFF7BAFF002802DA404213A507E03F
:100E000031688A0701D512A502E0490704D511A56A
:100E1000012401E0FFF7B2FF00210A2206F12407B6
:100E200009E0B0FBF2FCB0FBF2F302FB1C00303037
:100E300078541846491C0028F3D123462A463046E8
:100E4000BDE8F04100F06DBA000000002D00000088
:100E50002B0000002000000011680268006A5305A2
:100E600001D508700AE0D30501D5088006E0130615
:100E700003D5C217C1E9000200E0086001207047F5
:100E800001694A1C02610878704700B58FB0CDE94E
:100E900001310021059105497944CDE9031011463E
:100EA000684600F031F90FB000BD0000E5FFFFFF1C
:100EB0000A6802F8010B0A607047D1E900239A42E0
:100EC00002D2531C0B601070704700002DE9FF5FC9
:100ED00015468A460446DFF8AC80F8440027D8E976
:100EE00000103E46CDE9001010E03AF816106A46B0
:100EF00002A800F029FE411C07D02178890603D5FD
:100F0000E269391891420DD80744761C2078800692
:100F100002D5E069B84205DDAE42E6DB3AF81600DC
:100F20000028E2D1A069C01BA0612046FFF7F6FEB1
:100F3000D8E90010CDE90010002017E03AF81810A9
:100F40006A4602A800F000FEB0F1FF3F81460BD0D8
:100F500000250DF1080B05E0D4E901211BF805007F
:100F600090476D1C4D45F7D308F10100B042804613
:100F7000E4DB206A384420622046FFF7E5FEBDE846
:100F8000FF9F00009AD500002DE9F0418046D21D58
:100F900022F007020025D2E90002F52915A614D097
:100FA000011E72F1000106DA0023D0EB030063EBAF
:100FB000020211A608E0D8F800108B0701D50FA691
:100FC00002E0490701D50EA601251146002408F1CB
:100FD000240704E000F060F930323A55641C50EA0E
:100FE0000102F7D12B46324621464046BDE8F0418A
:100FF00000F097B9000000002D0000002B00000059
:101000002000000030B4002100F1240408E002F0C8
:101010000705D208303542EA4372DB086554491CA3
:1010200052EA0305F3D10468002310A2250707D56F
:10103000A40600D421B1C46901230DA2641EC461B9
:1010400030BC00F06EB910B5044621461068FFF7B9
:1010500095FE02462046BDE810400023D2E7D21D8F
:1010600022F00701D1E90023CCE7000000000000D6
:1010700030000000F0B40D460188090502D5214C6E
:101080007C4402E01F4C7C440E34002100F1240615
:1010900008E002F00F071209E75D42EA03721B093C
:1010A0007754491C52EA0307F3D102780023120750
:1010B00004D5702D06D009B1022311342246F0BCAC
:1010C00000F02FB901231034F8E770B504460D463F
:1010D00021461068FFF752FE024629462046BDE829
:1010E00070400023C6E7D21D22F00703D3E9002396
:1010F000C0E70368126843F0200303600823C3615C
:101100000023B7E7FCD300002DE9F05F89460446D1
:101110004FF0000ADFF874B1FB44C0F820A020466D
:10112000E1688847002874D0252806D0D4E9012139
:101130009047206A401C2062F1E700265F46204667
:10114000E16888472028054607DB312D05D278194C
:1011500010F8200C08B10643F1E7B00701D526F0DE
:101160000406C4F81CA00027C4F818A02A2D09D032
:10117000284603F08FFD38B304EB8708303DC8F8EC
:10118000185019E059F8041B204604EB87029161BE
:10119000E1688847012F054618D1E069002820DA68
:1011A00026F020061DE0D8F8180000EB800005EBC3
:1011B00040003038C8F818002046E16888470546E6
:1011C00003F068FD0028EED1012F0AD02E2D08D1A2
:1011D0002046E16888477F1C0546022F46F020061E
:1011E000C4DBA069002803DA404246F00106A06192
:1011F000F00701D026F010066C2D0BD0682D09D019
:101200004C2D39D06A2D35D0742D35D07A2D33D070
:1012100016E038E0E1682F4620468847B842054688
:1012200009D16C2F26D04FF48060E1680643204638
:101230008847054604E06C2F1AD04FF480700643AF
:101240000DB3A5F14100192802D8203546F40066F7
:101250004A462946204626604E46FEF7DFFF80B10B
:1012600001280BD0F61D26F0070000F1080956E70B
:101270004020E4E78020D8E70020D6E706F1040903
:101280004DE7284652E7206ABDE8F09F8CD3000066
:10129000004870479072002030B5B0F10A024FEA62
:1012A000900E71F100034EEA817EB0EB0E0061EB0F
:1012B00091014FEA101E4EEA017E10EB0E0041EB49
:1012C00011114FEA102E4EEA016E10EB0E0041EBA9
:1012D00011214FEA104E4EEA014E10EB0E0041EB89
:1012E0001141401841F100014FEAD00040EA41703D
:1012F0004FEAD10110EB80054FEA810444EA907473
:1013000044EB01046D1944EB0404521BA3414FF05C
:10131000000348BF0A3200D530BD401C41F1000136
:1013200030BD2DE9F0470D4699469246044600F13E
:1013300024080168880604D5E06921F010012160C5
:1013400000E00120A84201DD471B00E00027A16961
:101350007A1902EB0900081AA0612078C00602D4AD
:101360002046FFF7DBFC002608E0D4E901211AF84B
:1013700006009047206A401C761C20624E45F4DB34
:101380002078C0060AD52046FFF7C8FC06E0D4E95D
:10139000012130209047206A401C2062381EA7F1AE
:1013A0000107F4DC07E0D4E9012118F805009047B3
:1013B000206A401C2062281EA5F10105F3DC2046AE
:1013C000FFF7C2FC2078000602D50220BDE8F087B6
:1013D0000120FBE770472DE9FF4F0C461E464FF0FA
:1013E000FF378BB0D2E90001DDF860800A908A46B1
:1013F000C1F30A5505B93D460021084603F05EFFDA
:10140000BAF1000F00F4400005DA00EB80004FF461
:10141000400101EA50004FEA9059B9F1010F00DD97
:10142000B9460A9850EA4A000ED044F61050A5F288
:10143000FF3545432F14B8F1000F1ED07542291E09
:101440001EDDC9F100021CE0B8F1010F4FF00000F1
:1014500001D0302103E0F24305E02154401CB042AA
:10146000FBDB30460022002121540B99C1F8088093
:10147000C1E900200FB0BDE8F08FBD1B6D1CDEE799
:101480004A4600DA694206A800F0F4FB06AB93E88E
:10149000070003AB83E8070050460A9900F039FDC6
:1014A0008DE80700A0F500501F3800900398002D2C
:1014B0000ADD42F21F014A460844002303A90390B3
:1014C000684600F0A2FF09E0A0F500504A461F3828
:1014D000002303A90390684600F0ACFF8DE80700E5
:1014E0000004000C03D04FF0FF30410800E010462C
:1014F000B8F1000F03D00022009215461EE0751EC1
:1015000005D4FFF7C9FE303262556D1EF9D5B346DA
:101510000122084302D000227F1C04E020783028FA
:1015200001D100227F1E002A099784D01DE0112DD1
:1015300007DAFFF7B1FE303262556D1C50EA010246
:10154000F5D1084302D00098C8B10EE00021681E12
:1015500005E0235C625C63542254401E491C8142B6
:10156000F7DBAB46A81B401E0990002004F80B00D7
:101570000B98099AC0F80880C0E9002B7AE7112679
:101580004FF0000857E72DE9F04F88460446D21D7A
:1015900022F0070191B0D1E90001CDE90A0103F081
:1015A0007AFA02460B98C00F01D02D2007E0206880
:1015B000810701D52B2002E0202101EAC000032A87
:1015C000099001D0072A05DB03464146204600F07A
:1015D00011FB0BE12078800601D5E06900E00620D0
:1015E000B8F1650F814606D0B8F1660F18D0B8F192
:1015F000670F70D131E00020B9F1110F009001DBCD
:10160000112301E009F101030AAA01A90CA8FFF7BF
:10161000E2FEDDE90C70002609F10105834647E092
:1016200001204B4600904FF000470AAA01A90CA8E0
:10163000FFF7D1FEDDE90DB00C995D46002610B92B
:1016400009F101000D18B9EB050003D4C0F1FF3614
:1016500009F10105A5EB09002BE0B9F1010F01DA51
:101660004FF001090020B9F1110F0090484601DD4B
:10167000112300E003460AAA01A90CA8FFF7ABFE5C
:10168000DDE90C704D4600268346207800070AD419
:10169000AB4500DA5D4601A8012D04DD411911F8C2
:1016A000011C302907D04F4502DA17F1040F04DA84
:1016B000012082460FE06D1EEEE7002F02DCED1BDD
:1016C0003E4403E0781CA84200DD7D1CB81B00F1FD
:1016D000010A4FF000472078000703D4AA4501DB38
:1016E0004FF0FF3A0021B7F1004F0DF143088DF89C
:1016F000431024D002202B23002F01DA7F422D2318
:101700000A21021EA0F1010000DC5FB197FBF1FC91
:1017100097FBF1F201FB1C7C17460CF1300C08F82A
:1017200001CDEEE7A8F1010003702188090501D57C
:10173000452100E06521A0F1010800F8011C09988D
:101740000FA9A1EB0807FF1D00B10120411901EB12
:10175000EA70A1693844081A401EA0612078C006CA
:1017600002D42046FFF7DAFA099828B1D4E901211A
:101770009047206A401C20622078C00622D520466F
:10178000FFF7CCFA1EE0002E04DBB34502DD01A812
:10179000805D00E03020D4E901219047206A401CA0
:1017A0002062761CAAF101005FEA000A0AD100F06B
:1017B0001DFAC0680168405CD4E901219047206AA5
:1017C000401C2062281EA5F10105DCDC07E0D4E9FD
:1017D000012118F8010B9047206A401C2062381E36
:1017E000A7F10107F3DC2046FFF7AEFA032011B0A2
:1017F00041E600002DE9F04F04460D46D21D22F0CF
:10180000070089B0D0E900974846394603F043F90C
:101810000246F80F01D02D2307E02068810701D58B
:101820002B2302E0202101EAC0038DF820300BB108
:10183000012000E00020032A824601D0072A04DBB1
:101840002946204600F0D6F93FE12078800601D4F1
:101850000D2500E0E569C7F30A560D2D49DA002190
:101860004FEA175B084603F029FD002F00F4400003
:1018700007DA00EB80004FF4400100EBD07001EA82
:1018800060008115012901DD4FF0FF3100224FEA90
:10189000850CBCF1180F06D31346ACF118004FF0BD
:1018A0008052C24003E04FF4801323FA0CF30CF192
:1018B0000C0CBCF1200F04D3ACF1200C09FA0CF095
:1018C00001E007FA0CF000294FF0004801DD18B9DB
:1018D0000FE00ED140450CD319EB02095F4121B94D
:1018E000404502D19F4329EA0209BBEB175F00D0B4
:1018F000761C2088000502D57B48784402E07A48AF
:101900007844193808AA302302F80A30037C0AF117
:101910000101002E0AF1020A53546A4602DC4FF01C
:10192000300101E04FF031014FF001088DF8001057
:1019300002D0A6F2FF3603E059EA470100D06B4E11
:10194000002D02DC2178090704D54FF002082E2172
:101950008DF80110C44600210BE0C7F303433F019B
:10196000C35C491C6D1E02F80830052908F1010806
:1019700001DA002DF1DC00210CE000EB1973491CA9
:101980001B786D1E082902F808304FEA091908F182
:10199000010801DA002DF0DC21688B0602D516E083
:1019A000A8F10108E04505DD02EB080313F8013C4E
:1019B000302BF5D0B8F1000F09DD02EB080313F866
:1019C000013C2E2B03D1090701D4A8F10108002DF9
:1019D00005DD3E2102F808106D1E08F10108407C6B
:1019E000002E02F8080008F1010804DA2D207642E2
:1019F00002F8080002E02B2002F808000A214FF448
:101A00007A70864208F101080BDB96FBF0F3303365
:101A100002F8083096FBF0F308F1010800FB1366AA
:101A200001E0642E0CDB642096FBF0F3303302F807
:101A3000083096FBF0F308F1010800FB136601E0A3
:101A40000A2E06DB96FBF1F0303002F8080008F1B0
:101A5000010896FBF1F001FB1060303002F808003D
:101A6000A16908F1010808EB050202EB0A00081A57
:101A7000A0612078C00602D42046FFF74FF9216A02
:101A800008AE01EB0A00206204E0D4E9012116F857
:101A9000010B9047BAF1010AF7D22078C00602D5AF
:101AA0002046FFF73BF96E4609E016F8010B3E2889
:101AB0000FD0D4E901219047206A401C2062B8F180
:101AC0000108F2D22046FFF73FF909B00320BDE834
:101AD000F08F206A2844206203E0D4E901213020FD
:101AE00090476D1EEBD3F8E7CECB000002FCFFFF62
:101AF00010B5436913B1AFF3008001E0FFF747F978
:101B0000012010BD127800F124010A7000224A70F1
:101B10000122EDE711684FF0FF32E9E710B54369A4
:101B200013B1AFF3008001E0FFF7D0F9012010BD41
:101B3000128800F1240182840022C2840122EDE790
:101B400011684FF0FF32E9E770B516460C460546BE
:101B500000F044F8036893F80101012806D0FF2C37
:101B60000FD8185D68B101202C7070BDD3F8070143
:101B70003246214603F2071303442846BDE870406D
:101B800018474FF0FF3070BD00487047907200203A
:101B90007546FFF7F9FFAE4605006946534620F04B
:101BA0000700854618B020B5FEF7B2FBBDE820401F
:101BB0004FF000064FF000074FF000084FF0000B09
:101BC00021F00701AC46ACE8C009ACE8C009ACE8BC
:101BD000C009ACE8C0098D467047000010B500F0A0
:101BE00005F8001D10BD00BFE1310000004870473E
:101BF000B07200202DE9F0411F460446032601681B
:101C0000072A01F4006004DB08B116A505E016A55B
:101C100003E008B115A500E015A521F01000206033
:101C2000A069C01EA0610FB1401EA0612046FFF751
:101C300075F84FB1D4E9012138469047206A401C1D
:101C40002062C01C206206E0206AFAE7D4E9012184
:101C500015F8010B9047761EF8D22046FFF774F86E
:101C6000BDE8F0814E414E006E616E00494E460067
:101C7000696E66002DE9F047814616468AB0354800
:101C800078440DC88DE80D0032487844801C03ACC0
:101C90000DC884E80D0041F69B300844372190FBC5
:101CA000F1F290FBF1F5A5F1800501FB12041B3C5C
:101CB00002D56442012000E00020DFF898A08046B1
:101CC0000027FA44AAF1BE0A0EE0E0070AD0324625
:101CD000684607EB470101230AEB810100F0AAFBEC
:101CE0008DE8070064107F1C002CEED1194F7F4453
:101CF000AE3F19E0E80715D007EB04100DF1180A04
:101D000090E80E008AE80E00C068F04201D19819F0
:101D100008903246012306A903A800F08BFB03AB11
:101D200083E807006D10641C002DE3D14FF0010320
:101D300032466946B8F1000F03A802D000F065FBF7
:101D400001E000F077FBC9E90001C9F808200AB0FA
:101D5000BDE8F087D8C8000010B50446AFF3008096
:101D60002046BDE81040FEF7BEBA10B500F022F8DC
:101D7000BDE8104000F018B81FB584B000200A9CE0
:101D800006AB04AA02A90094AFF3008018B1DDE904
:101D9000020108B010BD03482040FFF7E6FF002015
:101DA0000146F6E70000207C002801D002F079BF50
:101DB0007047000010B5022803D0410103D50DA1E2
:101DC00012E0002010BD010101D50FA10CE0C100FF
:101DD00001D511A108E0810001D512A104E0400065
:101DE00001D513A100E0002115A000F079F8012031
:101DF00010BD0000496E76616C6964204F70657299
:101E00006174696F6E000000446976696465204200
:101E100079205A65726F00004F766572666C6F7735
:101E200000000000556E646572666C6F77000000FC
:101E3000496E657861637420526573756C74000037
:101E40005349474650453A2041726974686D65743C
:101E5000696320657863657074696F6E3A2000006D
:101E60004FF0013C50F8042B51F8043B9A4221D129
:101E7000A2EB0C03934313EACC1317D150F8042BB5
:101E800051F8043B9A4215D1A2EB0C03934313EA99
:101E9000CC130BD150F8042B51F8043B9A4209D1D2
:101EA000A2EB0C03934313EACC13DBD04FF00000FA
:101EB000704700BFD01A01BAB1FA81F101F01801E0
:101EC00022FA01F0CB40C1F12001DBB2C0B2C01A4E
:101ED0002CFA01F3D11A914311EAC311E6D17047EC
:101EE00070B505460C460A2000E06D1C02F0DAFED3
:101EF00035B128780028F8D102E0641C02F0D2FE47
:101F000014B120780028F8D1BDE870400A2002F012
:101F1000C9BE5FEA400C08BF91F0000F4FEA8C2366
:101F20004FEAC12243EA51514FEA1C5018BF00F555
:101F3000F0404FEA300018BF41F000415FEA6C5CAE
:101F400000F02980BCF1FF3F08BF40F0804070479F
:101F5000130C06BF12044FF0100C4FF0000C130EC0
:101F600004BF12020CF1080C130F04BF12010CF194
:101F7000040C930F04BF92000CF1020CD30F04BFAA
:101F800052000CF1010C11464FF00002A0F11F00AD
:101F9000A0EB0C00704711F0004F08BF704731F004
:101FA00000413FF4D5AF0B0C06BF09044FF0100CF5
:101FB0004FF0000C0B0E04BF09020CF1080C0B0FC4
:101FC00004BF09010CF1040C8B0F04BF89000CF154
:101FD000020CCB0F04BF49000CF1010CCCF1200323
:101FE000A0EB0C0022FA03F302FA0CF241EA03011F
:101FF00000F10100704720F07F4C80EA030023F0DD
:102000007F47ACEB070303F57C5300F0004003F17E
:10201000FF032DE980494FEA154B09B44FEA1443F9
:1020200025EA0B4E24EA03480FF2042606EB132799
:1020300049083E785FEA320203FB0667C7F50007EE
:1020400007FB06F64FEA54374FEAD64606F102067A
:1020500007FB066CCCF1005C4FEA1C472CEA074CEE
:1020600007FB06F40CFB06F504EB15464FEA961643
:1020700034BF00204FF000404FEAD13706FB07FC89
:102080004FEA1C4C0CFB0BF7D21B03FB0CF761EB6C
:1020900007010CFB0EF7B0EB074072EB17420CFB8D
:1020A00008F734BFA2EB0742B2EB074261EB1741DE
:1020B0004FEA0C444FEA910706FB07FC4FEA1C4C21
:1020C0000CFB0BF7B0EBC74072EB573203FB0CF77E
:1020D00034BFA2EBC742B2EBC74261EB57310CFBF6
:1020E0000EF7B0EBC70072EB57720CFB08F734BF6A
:1020F000A2EBC702B2EBC70261EB5771039F4FEA35
:10210000816141EA921104EBCC044FEAD1374FEAE6
:10211000826206FB07FC42EA90124FEA80604FEAB7
:102120001C4C0CFB0BF7D21B03FB0CF761EB0701FC
:102130000CFB0EF7B0EB074072EB17420CFB08F7F5
:1021400034BFA2EB0742B2EB074261EB17414FEA03
:102150008C554FEA910704EB9C2406FB07FC4FEAE1
:102160001C4C0CFB0BF7B0EBC74072EB573203FB78
:102170000CF734BFA2EBC742B2EBC74261EB573159
:102180000CFB0EF7B0EBC70072EB57720CFB08F7B5
:1021900034BFA2EBC702B2EBC70261EB577115EB7C
:1021A0004C254FEA816141EA92114FEA82624FEA7F
:1021B000D13742EA901206FB07FC44F100044FEAD3
:1021C00080604FEA1C4C0CFB0BF7D21B03FB0CF797
:1021D00061EB07010CFB0EF7B0EB074072EB174207
:1021E0000CFB08F734BFA2EB0742B2EB074261EBEE
:1021F000174115EB1C154FEA813141EA92414FEA34
:10220000823242EA90424FEA80304FEA0C7644F143
:10221000000448EA03434EEA0B484FF0000EB2EBCD
:10222000080C71EB030724BF624639464EEB0E0ED5
:102230004FF0000B0018524149414BEB0B0BB2EB36
:10224000080C71EB03077BF1000B24BF6246394693
:102250004EEB0E0E4FF0000B0018524149414BEB74
:102260000B0BB2EB080C71EB03077BF1000B24BFE7
:10227000624639464EEB0E0E51EA020718BF46F091
:10228000010616EB0E7655F1000254F1000103D55C
:10229000BDE88901BDE80088BDE88901BDE80048C6
:1022A000B619524141EB0101A3F10103704780804F
:1022B0007F7E7D7C7B7A79787776767574737271A0
:1022C00071706F6E6E6D6C6C6B6A6A696868676658
:1022D00066656464636362616160605F5F5E5E5DEA
:1022E0005D5C5C5B5B5A5A5959585857575656555E
:1022F00055555454535352525251515050504F4FC0
:102300004F4E4E4D4D4D4C4C4C4B4B4B4A4A4A490F
:102310004949484848474747474646464545454452
:102320004444444343434342424242414141002BDF
:102330009C4630D477002BD01CB54FEA370703B446
:102340004FF010004FF01001BAF1000F06D0BCF1B1
:10235000000FDCBF40F0080040F0080102F0AEFFC3
:102360000FBCBDE810400BF1010BBBF1010F08BF22
:102370005FEA170722BF12F1010211F101014FF0CC
:10238000004143F1000300F0004043EA00007047C1
:10239000F9D35708D0E746EA064613F1400F4FEA53
:1023A00016461FDD13F1200FDFBF16430A4600213A
:1023B00020335B42BED0C3F1200746EA064602FA4C
:1023C00007F74FEA164646EA0706C3F1200722FA46
:1023D00003F201FA07F721FA03F14FF0000342EA92
:1023E0000702A7E746EA020646EA06464FEA16460D
:1023F00046EA0106BCBF46EA0646360C4FF000032B
:102400004FF000024FF0000194E72DE9804C9A460E
:10241000934670B491E8380007C831EA400C48BFD1
:1024200034EA430C03D5FFF7E6FDFFF780FFF0BC6D
:10243000BDE8008C2DE9804C9A46934670B491E833
:10244000380007C810F0804F08BF13F0804F03D149
:1024500000F005F8FFF76BFFF0BCBDE8008C20F042
:102460007F4780EA030023F07F4C07EB0C03A3F5C2
:102470007C5300F00040A3F1FE0392F0000F00F047
:10248000B38095F0000F00F077802DE901494FEA05
:1024900011404FEA144621EA004800FB06FC24EAFA
:1024A000064708FB06F607FB08F800FB07F718EBE2
:1024B00006484CEB164C4FEA124B18EB07484FEA14
:1024C00015464CEB174022EA0B4E0BFB06FC25EAA7
:1024D00006470EFB06F607FB0EFE0BFB07F71EEB8F
:1024E000064E4CEB164C4FF000061EEB074E4CEB25
:1024F000174B18EB0B0840F1000018EB0E0B58EBD4
:10250000000840F100008F1A4FF000013CBFC943A2
:10251000661B14BFB5EB040C00213CBFC943F61B7E
:102520004FEA17444EEA8E0E27EA04454FEA1C474D
:1025300004FB07622CEA074C05FB07F70CFB05F6CA
:1025400004FB0CFC16EB074642EB174216EB0C465D
:1025500042EB1C421BEB060658EB0202414146EAE5
:102560009E0601D5BDE80189B619524141EB010132
:10257000A3F10103BDE801894FEA14454FEA114771
:1025800024EA054621EA074C05FB07F406FB07F79A
:102590000CFB06F105FB0CFC11EB074144EB174467
:1025A0004FEA124711EB0C4144EB1C4422EA074C62
:1025B00005FB07F206FB07F70CFB06F605FB0CFC18
:1025C00016EB074642EB174216EB0C4642EB1C4556
:1025D0006A1854F1000148BF7047B619524141EBE7
:1025E0000101A3F10103704795F0000F37D04FEAC6
:1025F00011424FEA144721EA024624EA074C02FB43
:1026000007F106FB07F70CFB06F402FB0CFC14EBCE
:10261000074441EB17414FEA154714EB0C4441EBDB
:102620001C4125EA074C02FB07F506FB07F70CFBEC
:1026300006F602FB0CFC16EB074645EB174516EBBE
:102640000C4645EB1C42121951F1000148BF70477E
:10265000B619524141EB0101A3F1010370474FEA62
:1026600014454FEA114724EA054621EA074C05FBC9
:1026700007F106FB07F70CFB06F24FF0000605FB1F
:102680000CFC12EB074241EB174112EB0C4251EBF1
:102690001C4148BF7047921841EB0101A3F10103AF
:1026A000704710B50146886B026C12F0500F05D0D0
:1026B000026CD20626D500F00AFC10BD016C41F474
:1026C0000071016401688A6812F0405F17D1027ED0
:1026D000AAB9CA6A12F4700F02D08A6852050ED4E1
:1026E0004A6822F020024A60016C21F48071016482
:1026F000016CC90403D4016C41F00101016400F0D4
:10270000B3FB10BD806BC26CBDE81040084610479B
:1027100010B5806B40210164416C41F004014164BB
:1027200000F0D5FB10BD10B5806B00F0CFFB10BDE5
:102730004A494A6822F440324A604A6843681A4368
:102740004A6001684A6822F480724A6001684A68F7
:10275000036942EA03224A6001684A6822F0407233
:102760004A6001684A6883681A434A6001688A6857
:1027700022F400628A6001688A68C3681A438A602A
:10278000816A6FF07062D14214D001688A6822F0C9
:1027900070628A6001688A68836A1A438A60016885
:1027A0008A6822F040528A6001688A68C36A1A43C4
:1027B0008A6009E001688A6822F070628A600168B4
:1027C0008A6822F040528A6001688A6822F0020218
:1027D0008A6001688A68037E42EA43028A6090F850
:1027E000201089B101684A6842F400624A600168B9
:1027F0004A6822F460424A6001684B68426A521E8D
:1028000043EA42324A6004E001684A6822F4006206
:102810004A600168CA6A22F47002CA620168CB6A1F
:10282000828B521E43EA0252CA6201688A6822F40D
:1028300000728A6001688A6890F8303042EA432268
:102840008A6001688A6822F480628A6001688A6806
:10285000406942EA80208860704700000023014000
:1028600010B50E49002048720D494FF4006422460D
:10287000A1F1480000F058FB20B10AA001F070FF60
:1028800000F0FCF80E480068036843F01003036092
:102890002146BDE810400BA001F062BF1C50002093
:1028A0008C6100200A41444320444D4120737461EF
:1028B0007274206661696C6564210D0A0000000075
:1028C000E87100200A4144432B444D412073746158
:1028D000727465642C2077616974696E6720666F15
:1028E000722025642073616D706C65732040203107
:1028F000306B487A2E2E2E0D0A000000FEE770B5D0
:1029000005464FF6FF7000234AF201040EE0EA5C30
:1029100050400022C60702D084EA500000E0400880
:10292000521CD2B2082AF5D35B1C9BB28B42EED369
:1029300070BD0000014800F007BC0000E8710020F5
:102940000168CAB2103A1823B2FBF3F2064B9B5C43
:10295000C3656FF30901032A02D9091D816500E0EF
:102960008165806D704700002C54000810B5014649
:1029700000208A6A8B694FF0C074002B0ED0B3F52B
:10298000005F1AD062B3012A2AD0022A28D0032A73
:1029900003D1C96AC90100D5012010BD1AB1012AAD
:1029A00006D0022AF9D1C96AC901F6D5012010BDA5
:1029B000C96AA142FBD1012010BD52B1012A0AD03F
:1029C000022A06D0032AF7D1C96AA142F4D1012014
:1029D00010BD012010BDC96AC901FBD5012010BD81
:1029E000012010BD38B5002015490A6842F4800264
:1029F0000A60096801F480010091134C11492160BB
:102A00006060A060E0600915216149006161890092
:102A1000A161E061090121626062204600F07CFC56
:102A200008B100F02BF809488463A0630022114626
:102A3000382000F065FEBDE83840382000F053BE75
:102A40003038024010640240E871002044610020E8
:102A500030B50468256825F4802525600468636026
:102A60008368402B04D0036899600068C26030BD61
:102A700003689A600068C16030BD704772B6044C4C
:102A80004021204600F0D4FDC82000F0E6FCF7E726
:102A90000010024010B501230022D9020848FDF7BA
:102AA00083FE014631B107A001F05AFEBDE8104097
:102AB000FFF7E4BFBDE8104008A001F051BE0000E0
:102AC0008C71002046465420494E495420464149C5
:102AD0004C45443A2025640D0A0000004646542027
:102AE000494E4954204F4B2028323034382D7074D1
:102AF0002052616469782D32290D0A002DE9F041D8
:102B00002DED088B0024B7EE009A01274FF40068E2
:102B1000214EDFED228ADFED229A9FED22AADFED22
:102B200022AADFED22BA224D9FED22BA36F8140018
:102B300000EE100AF8EE400A80EEA80A30EE498A4C
:102B400000EE104AB8EE400A60EE290A80EE8A0ACA
:102B5000FDF7F0FBF0EE6B0A40EE6A0A05EBC400ED
:102B600028EE200A80ED000A07EB440005EB800008
:102B700080ED00BA641C4445D8D30D490E48FDF7DA
:102B8000F5FDBDEC088B4FF48062BDE8F0410B49C8
:102B90000748FDF70BBC00008C61002000F0FF44EB
:102BA000DB0FC94000E0FF441F85EB3E713D0A3F4B
:102BB00000000020000000008C7100200040002078
:102BC0002DE9F0412DED068B88B0FFF797FF00202F
:102BD00007909FED490A8DED060A07AB06AA40F261
:102BE000FF314648FDF77AFEDFF8148198ED000AC0
:102BF000DFED440A60EE208A079800EE100AB8EE76
:102C0000400A20EE288A811E3C4DB1F57F7F24D8F2
:102C1000411E05EB810191ED000A05EB800191ED6C
:102C2000001A401C05EB8000D0ED000AB0EE002A2F
:102C3000F0EE401A41EE421A31EEA01AB5EEC01A7B
:102C4000F1EE10FA09D030EE600AF6EE000A60EEFE
:102C5000200A80EE810A00EE288A9DED060ADFED4B
:102C60002A9A30EE290A01F03FFFB3EE049A20EED3
:102C700009AA88ED038A88ED04AA00244FF480662F
:102C800005EB840090ED000A30EE290A01F02CFFDC
:102C900020EE090A08EB840080ED060A641CB442A9
:102CA000EEDB18EE900A02F0AFF904460D4618EE7E
:102CB000100A02F0A9F906460F461AEE100A02F0B1
:102CC000A3F998ED001A41EC100B4FF40060BCEE34
:102CD000C11A53EC102B8DED041ACDE90067CDE934
:102CE000024505900948079901F03AFD08B0BDEC8E
:102CF000068BBDE8F08100000000000000400020CD
:102D00001C5000200000003ACCBC8C2B74E500085D
:102D100078B50024009490F83C20012A19D00122B3
:102D200080F83C200A680725092A14D90368DE6860
:102D30000A3A02EB42029540AE43DE600A788B68A5
:102D40000A3A02EB420293400268D5682B43D360F3
:102D500011E0022078BD03681E6902EB4202954033
:102D6000AE431E610A788B6802EB42029340026810
:102D700015692B4313614A681F25072A13D203687C
:102D80005E6B521E02EB82029540AE435E630A8880
:102D900093B20A79521E02EB820293400268556B8D
:102DA0002B43536328E00D2A13D203681E6BD21FF6
:102DB00002EB82029540AE431E630A8893B20A7901
:102DC000D21F02EB820293400268156B2B43136300
:102DD00012E00368DE6A0D3A02EB82029540AE43D0
:102DE000DE620A8893B20A790D3A02EB82029340BE
:102DF0000268D56A2B43D362174A184B05689D4277
:102E000006D10D68122D03D1556845F48005556033
:102E100005689D421BD10B68102B01D0112B16D1D8
:102E2000536843F400035360096810290FD10C491B
:102E30000C4A0968B1FBF2F101EB810149000091F4
:102E400002E00099491E009100990029F9D180F80B
:102E50003C40002078BD00000023014000200140DC
:102E60000450002040420F0000680749884207D103
:102E70000649012048720648018806A001F070BC8E
:102E80000CA001F06DBC0000002001401C5000208F
:102E90008C61002041444320636F6D706C657465E4
:102EA000212066697273742076616C75653A2025FD
:102EB000640A00004144432043616C6C6261636BAF
:102EC000204572726F72210A00000000704770473F
:102ED00070B504460026002C03D0206C002510B1EC
:102EE00007E0012070BD204600F01CF8656484F8FE
:102EF0003C50206CC00610D4206C20F4885040F068
:102F0000020020642046FFF713FC6564206C20F06B
:102F1000020040F00100206400E0012684F83C50EB
:102F2000304670BD70470000F8B50446002300939A
:102F300094F83C00012807D0012084F83C00206868
:102F40008568ED0702D014E00220F8BD856845F0E1
:102F5000010585604648474D0068B0FBF5F000EB81
:102F60004000009002E00098401E00900098002869
:102F7000F9D120688568ED0503D5856825F480754D
:102F8000856020688568ED0768D0256C40F2016691
:102F9000B54345F4807525644068400505D5206C2F
:102FA00020F4005040F480502064206CC00404D50C
:102FB000606C20F00600606400E0636484F83C30DC
:102FC0002D4EA36B2D48D863A36B2D481864A36BBB
:102FD0002C48D86423686FF022001860206843688A
:102FE00043F0806343602068836843F480738360A8
:102FF000206813464C300A46A56B0146284600F06F
:10300000F5F970682049C00607D0206888422DD1A4
:10301000816811F0405F1CD028E0206888420FD002
:103020001A4A904203D1D1F80423D20608D0184A94
:1030300090421BD1D1F8041301F01F01102915D2C1
:10304000816811F0405F11D1816841F08041816059
:103050000CE0816841F08041816007E0206C40F025
:1030600010002064606C40F0010060640020F8BD36
:103070000450002040420F0000230140A326000816
:1030800027270008112700080020014000210140E7
:10309000002201402DE9F0410446A76D00F0D8FA66
:1030A000054694F835000026022806D08020606589
:1030B00084F834600120BDE8F0812068016821F0C7
:1030C000160101602068416921F080014161206C96
:1030D00008B9A06C20B12068016821F008010160E6
:1030E0002068016821F0010101600BE000F0B0FAF6
:1030F000401B052806D9202034342062032060704C
:103100002670D8E720680068C007EFD134343F202C
:1031100094F828108840B860012060702670002064
:10312000C9E790F83510022903D0802141650120BC
:103130007047052180F835100068016821F0010111
:1031400001600020704700002DE9F84304464FF06D
:103150000009CDF800906F484FF416510068B0FB9D
:10316000F1F7A56D2E6894F85C00082202FA00F1D0
:10317000314210D02068016849070CD5016821F060
:103180000401016094F85C0002FA00F1A960606D2E
:1031900040F00100606594F85C104FF0010808FAF7
:1031A00001F0304208D021684969090604D5A860B9
:1031B000606D40F00200606594F85C100420884067
:1031C000304208D021680968890704D5A860606D7D
:1031D00040F00400606594F85C1010208840304294
:1031E00020D02168096809071CD5A86020680168FB
:1031F00049030CD50068000304D4216C91B120462A
:1032000088470FE0A16C69B1204688470AE0016851
:10321000C90503D4016821F008010160216C09B1DE
:103220002046884794F85C102020884030424CD0DB
:1032300021680968C90648D5A86094F835000528B2
:103240000BD020680168490330D50068000328D4FA
:10325000616C51B32046884737E02068016821F04F
:10326000160101602068416921F080014161206CF4
:1032700008B9A06C20B12068016821F00801016044
:1032800094F85C103F208840A86084F8358084F86A
:103290003490216D00293BD001B02046BDE8F043B9
:1032A0000847E16B09B1204688470EE00168C9056F
:1032B00007D4016821F01001016084F8358084F89A
:1032C0003490E16B09B120468847606D00281FD01B
:1032D000606DC00714D0052084F8350020680168AF
:1032E00021F0010101600098401C0090B84203D811
:1032F00020680068C007F6D184F8358084F83490DF
:10330000E16C002904D001B02046BDE8F043084735
:10331000BDE8F883045000202DE9F041044600F098
:1033200097F905465CB1022084F83500002684F840
:1033300034602068016821F0010101600DE0012086
:10334000BDE8F08100F084F9401B052805D9202054
:103350006065032084F83500F2E720680068C00744
:10336000F0D121680A6820480240D4E901031843DB
:10337000D4E903352B43184363691843A369184301
:10338000E3691843236A18431043626A042A03D18D
:10339000D4E90B231A43104308602068406920F0E9
:1033A0000700656A29460543012704290DD1A06A53
:1033B0000543E06A48B12046FFF7D8FA28B140201B
:1033C000606584F835700120BAE7206845612046C1
:1033D000FFF7B6FA94F85C203F2191408160666562
:1033E00084F835700020ABE73F8010F02DE9F04104
:1033F00004460025A66D94F8340001280DD0012064
:1034000084F8340094F835700020012F07D084F838
:10341000340002252846BDE8F0810220FBE70227A0
:1034200084F8357060652046FFF712FB94F85C1055
:103430003F208840B0602068016841F016010160BB
:10344000206C20B12068016841F00801016020680B
:10345000016841F001010160DCE780B201F023BCAA
:103460002DE9F84F0022DFF89C914FF00108032767
:103470004FF00F0C09F1040AA9F1040B08FA02F548
:103480000B682B40AB426ED10C7904F00304012C85
:1034900001D0022C15D18668540007FA04FE26EAF2
:1034A0000E06D1F80CE00EFA04FE4EEA060EC0F845
:1034B00008E04468AC430D79C5F3001595402543F9
:1034C00045600C79E443A40708D0C568540007FAA6
:1034D00004F6B5438E68A6402E43C6600C7904F00E
:1034E0000304022C11D1D40800EB8406356A54077A
:1034F000E40E0CFA04FE25EA0E05D1F810E00EFAEF
:1035000004FE4EEA050EC6F820E00568540007FAEE
:1035100004F6B5430E7906F00306A6402E43066076
:103520004C6814F4403F67D0374C256845F480451B
:103530002560246804F480440094344C22F0030590
:103540002E19D6F8085894074FEA147E0CFA0EF498
:10355000A5432F4CA04201D1002424E02D4CA042D1
:1035600002D101241FE047E02B4CA04201D10224EC
:1035700019E02A4CA04201D1032414E0284CA042B7
:1035800001D104240FE0274CA04201D105240AE018
:10359000254CA04201D1062405E0244CA04201D1D3
:1035A000072400E0082404FA0EF42C43C6F8084867
:1035B000D9F800409C434D68ED0200D51C43C9F882
:1035C0000040DAF800409C434D68AD0200D51C4332
:1035D000CAF80040DBF800409C434D68AD0300D5BD
:1035E0001C43CBF80040074D083D2C689C434E68B7
:1035F000F60300D51C432C60521C102AFFF43EAF8A
:10360000BDE8F88F083C01404438024000300140DA
:10361000000002400004024000080240000C02408A
:10362000001002400014024000180240001C02403A
:10363000426921EA02030A4043EA0241816170477C
:10364000002A01D081617047090481617047000040
:1036500001488068704700001050002002488168CF
:1036600002781144816070471050002010B50B485B
:10367000016841F400710160016841F480610160FA
:10368000016841F480710160032000F059F80F20B7
:1036900000F006F800F026F8002010BD003C0240C3
:1036A00070B504460D4D4FF47A712878B1FBF0F0F7
:1036B0000B490968B1FBF0F000F034FB08B10120C0
:1036C00070BD102C07D200222146501E00F018F8C1
:1036D0006C60002070BD012070BD00001050002003
:1036E000045000207047002809DB00F01F02012170
:1036F00091404009800000F1E020C0F800117047BF
:10370000F0B40D460D4B1B68C3F30223C3F107044D
:10371000042C00D90424191D072901D2002300E03C
:10372000DB1E012606FA04F1491E294099409E40FD
:10373000761E16403143F0BC01F0C5B90CED00E037
:1037400000F00701054A10684FF6FF03184040EAF1
:103750000120034908431060704700000CED00E0B1
:103760000000FA052DE9F04704460D46002C13D061
:10377000DFF82891D9F80000EFB200F00700A84266
:103780000CD289F80070D9F8000000F00700A842B8
:1037900004D00120BDE8F0870120FBE72068404EFF
:1037A000810712D5400703D5306840F4E0503060FF
:1037B0002078000703D5306840F4604030603068FE
:1037C000A16820F0F000084330602078C00731D0B5
:1037D000334960680839012808D002280BD0032833
:1037E00009D0096889070BD40120D3E70968890348
:1037F00006D40120CEE70968890101D40120C9E778
:10380000316821F0030101433160FFF721FF804659
:1038100041F2883A07E0FFF71BFFA0EB0800504594
:1038200001D90320B6E73068616800F00C00B0EB06
:10383000810FF0D1D9F8000000F00700A84209D9A3
:1038400089F80070D9F8000000F00700A84201D004
:1038500001209FE72078400705D53068E16820F413
:10386000E050084330602078000706D530682169B1
:1038700020F4604040EAC100306000F03FF8316859
:10388000084AC1F30311515CC84007490860074862
:103890000068FFF705FF00207CE70000003C0240C5
:1038A000083802401454000804500020145000202E
:1038B00001480068704700000450002000B5FFF781
:1038C000F7FF04490968044AC1F38221515CC840EA
:1038D00000BD0000083802402454000800B5FFF77E
:1038E000E7FF04490968044AC1F34231515CC8400A
:1038F00000BD0000083802402454000810B51748E5
:10390000006810F00C01164816D04310042912D09C
:10391000082911D1114C241F216801F03F022168B0
:1039200049020AD52068C0F38810A0FB03010023D8
:10393000FDF72CF909E0184610BD21680023C1F3FA
:103940008811A1FB0001FDF721F92168C1F30141B4
:10395000491C4900B0FBF1F010BD000008380240DE
:103960000024F4002DE9F84F0446002C13D02078F1
:10397000DFF8A083C007A8F1040556D008F10400C1
:103980000168C1F3810101290CD00068C0F38100F6
:10399000022803D00DE00120BDE8F88FD8F8000020
:1039A000400206D5286880033FD5606870BB0120BF
:1039B000F2E76068B0F5803F10D0B0F5A02F12D0CC
:1039C000286820F480302860286820F4802028604F
:1039D0006068E0B1FFF73CFE064614E0286840F45A
:1039E00080302860F4E7286840F480202860286848
:1039F00040F480302860EBE7FFF72AFE801B642844
:103A000001D90320C8E728688003F5D50DE0FFF74A
:103A10001FFE064606E0FFF71BFE801B642801D947
:103A20000320B9E728688003F5D42078BA4F8007CF
:103A30004FF0000948D5B748001D016811F00C0F80
:103A400008D00068C0F38100022813D1D8F8000024
:103A500040020FD42868800704D5E068012801D00F
:103A6000012099E72868216920F0F80040EAC100A8
:103A7000286029E0E068B8B101203860FFF7E8FD70
:103A8000064606E0FFF7E4FD801B022801D903206B
:103A900082E728688007F5D52868216920F0F800BA
:103AA00040EAC10028600FE0C7F80090FFF7D0FDA2
:103AB000064606E0FFF7CCFD801B022801D9032053
:103AC0006AE728688007F5D42078000729D5DFF851
:103AD00044A2924861690AF1700A89B1012101602A
:103AE000FFF7B6FD064606E0FFF7B2FD801B022891
:103AF00001D9032050E7DAF800008007F4D510E080
:103B0000C0F80090FFF7A4FD064606E0FFF7A0FD11
:103B1000801B022801D903203EE7DAF80000800765
:103B2000F4D42078400778D54FF0000A79483C302B
:103B30000068C0000BD477483C30016841F08051E8
:103B40000160006800F0805000904FF0010ADFF83B
:103B5000D0B1DBF80000C00514D4DBF8000040F45D
:103B60008070CBF80000FFF773FD064606E0FFF714
:103B70006FFD801B022801D903200DE7DBF8000050
:103B8000C005F4D5634EA0686C3601280FD0052817
:103B900012D0306820F001003060306820F004005E
:103BA0003060A068F8B1FFF753FD834617E0306836
:103BB00040F001003060F4E7306840F0040030600D
:103BC000306840F001003060EBE7FFF741FDA0EB0B
:103BD0000B0141F28830814201D90320DCE63068D4
:103BE0008007F2D510E0FFF733FD834609E0FFF7C9
:103BF0002FFDA0EB0B0141F28830814201D9032057
:103C0000CAE630688007F2D4BAF1010F05D1414805
:103C10003C30016821F080510160A069C0B33D498A
:103C2000091D09684FF0FF36C1F38101022946D012
:103C3000022805D0C7F86090FFF70AFD04463AE075
:103C4000C7F86090FFF704FD814607E0FFF700FD2D
:103C5000A0EB0900022801D903209DE62868800115
:103C6000F4D4D4E907010843616AA26A890106EB2A
:103C7000520241EA0241084394F82C1040EA0160E4
:103C8000C8F8000001203866FFF7E2FC044607E0B0
:103C90003DE0FFF7DDFC001B022801D903207BE695
:103CA00028688001F5D532E0FFF7D2FC001B02281E
:103CB00001D9032070E628688001F5D427E00128A7
:103CC00023D0D8F80000E26900F4800191421AD1B3
:103CD000226A00F03F01914215D147F6C071626A35
:103CE0000140B1EB821F0ED1A26A00F4403106EB15
:103CF0005202B1EB024F06D194F82C1000F0706024
:103D0000B0EB016F03D0012046E6012044E600201D
:103D100042E600000438024000004742800E47425D
:103D20000070004010B5401EB0F1807F01D301202B
:103D300010BD4FF0E02460610F21601700F0C3FE5A
:103D40000020A06107202061002010BD70B590F810
:103D50003C20012A31D0012680F83C60022280F804
:103D60003D2002685468936824F070050C682C4369
:103D70005460134C0268A24214D0B2F1804F11D0AB
:103D8000104CA2420ED0104CA2420BD00F4CA242BB
:103D900008D00F4CA24205D00E4CA24202D00E4CCD
:103DA000A24204D123F080034968194391603C305A
:103DB000467000210170002070BD022070BD00001F
:103DC000000001400004004000080040000C0040DA
:103DD00000040140004001400018004010B50446B6
:103DE000002C03D094F83D0010B107E0012010BD75
:103DF000002084F83C00204600F015F8022084F8EA
:103E00003D00211D206800F085FB01203D346072DB
:103E10006070A070E07020716071A071E07120721C
:103E20002070002010BD704790F83D10012901D08E
:103E300001207047022180F83D1000681349884234
:103E400014D0B0F1804F11D0114988420ED01149E1
:103E500088420BD01049884208D01049884205D0CA
:103E60000F49884202D00F49884209D1816801F088
:103E70000701062908D0016841F00101016003E053
:103E8000016841F00101016000207047000001401D
:103E90000004004000080040000C00400004014005
:103EA000004001400018004070477047F8B50446D4
:103EB00022681068D168536900F00F06002E08D1FF
:103EC000850606D58D0604D52046BDE8F84000F0ED
:103ED00067BC0025002E66D003F0010601F4907740
:103EE000374360D0C20705D0CA0503D5626C42F0E3
:103EF00001026264420705D5DA0703D0626C42F022
:103F000002026264820705D5DA0703D0626C42F0D0
:103F100004026264020707D501F02002324303D095
:103F2000626C42F008026264626C002A31D0800642
:103F300004D5880602D5204600F032FC206840698E
:103F4000C0F38010616C090700D438B3204600F03C
:103F500091FB2068406940061CD52068143050E869
:103F6000001F21F0400140E80012002AF5D1E06B6B
:103F700060B159490165E06BFFF7D3F8002808D01C
:103F8000E06B016D01B0BDE8F04008472046FFF747
:103F90008CFFF8BD2046FFF788FFF8BD2046FFF7ED
:103FA00084FF6564F8BD236B012B7DD1C3067BD5EF
:103FB000CB067FD510685068009050694FF0200301
:103FC00040064FF0020644D5E16B0868406880B2B5
:103FD0000028E7D0A28D8242E4D9E085C869B0F517
:103FE000807F2DD020680C3050E8001F21F48071B4
:103FF00040E80012002AF5D12068143050E8001F74
:1040000021F0010140E80012002AF5D120681430A7
:1040100050E8001F21F0400140E80012002AF5D1CD
:1040200084F84230256320680C3050E8001F21F0EE
:10403000100140E80012002AF5D1E06BFFF72AF8E2
:104040006663A08DE18D401A81B22046FFF72CFFF8
:10405000F8BDA08DE18D401A81B2E08D0028F7D027
:104060000029F5D020680C3050E8002F22F490721F
:1040700040E80027002FF5D12068143050E8002FC9
:1040800022F0010240E80027002FF5D184F84230E9
:10409000256320680C3050E8002F22F0100240E821
:1040A0000023002BF5D100E004E066632046FFF713
:1040B000FBFEF8BD020606D50A0604D52046BDE87B
:1040C000F84000F077BC4006F3D54806F1D520460D
:1040D000BDE8F84000F0F5BA6546000870B5044642
:1040E000002C04D094F84100002510B106E0012016
:1040F00070BD84F84050204600F024F8242084F855
:1041000041002068C16821F40051C160204600F0E0
:10411000ABFB2068016921F490410161206841698D
:1041200021F02A0141612068C16841F40051C16059
:104130006564202084F8410084F842006563002013
:1041400070BD000030B587B000681F49884238D183
:104150001E48016841F010010160006800F0100085
:1041600001901A481438016841F0010101600168AA
:1041700001F001010191016841F001010160006855
:1041800000F0010001904FF40070029002200390B3
:10419000012104910590072406940D4D02A928469B
:1041A000FFF75EF929150291069402A92846FFF748
:1041B00057F92520FFF797FA032211462520FFF72C
:1041C0009FFA07B030BD00000010014044380240A3
:1041D0000000024090F84230202B01D002207047AE
:1041E00021B11AB10023036300F0C8BB012070475E
:1041F00030B400681649884228D1164A5088010414
:1042000019D41146440409784FF0000307D50A2950
:1042100001D053800FE040F4004050800BE00D29A6
:1042200010D00D4DC0F30D042955401C80B25080B4
:10423000C72800D953800848012230BC0549C8303E
:10424000FFF7C8BF40F480405080F4E730BC7047AF
:10425000001001400C500020346000202DE9F8438C
:1042600004460E4615461F4694F84100202802D009
:104270000220BDE8F8837EB175B100206064212082
:1042800084F84100FFF7E4F98146A584E584A0683D
:10429000B0F5805F02D003E00120EAE7206920B199
:1042A000354600264FF0200815E00025FAE74B467A
:1042B000002280212046009700F0ABFB18B184F863
:1042C00041800320D5E7ADB1216815F8010B4860A6
:1042D000E08C401EE084E08C0028E8D14B460022B0
:1042E00040212046009700F094FB50B184F84180B3
:1042F0000320BEE736F8020B2168C0F308004860CF
:10430000E6E784F841800020B3E77047FEE700004D
:1043100010B586B0142101A8FCF7CAFC0021104892
:10432000026842F010020260006800F01000009085
:10433000602001900120029003910491094C01A991
:104340002046FFF78DF8012220212046FFF778F95B
:10435000012240212046FFF773F906B010BD00008E
:10436000303802400010024030B58BB00024079472
:10437000089409940A941F48016841F4807101600F
:10438000006800F4807001901A481438016841F008
:1043900001010160006800F001000190142102A8F1
:1043A000FCF786FC0125029503200390049402A9E2
:1043B0001148FFF755F8124810490160290441607F
:1043C00084600461047680F820400903C1624FF0E4
:1043D000C0618162C460C56180F830504561FEF7FC
:1043E00077FD07940895099407A90548FEF790FC06
:1043F0000BB030BD443802400000024000200140B4
:1044000044610020FEE77047704770472DE9F04196
:10441000ADF5825DAA200EAD8DF8380000208DF834
:104420003900102003248DF83A000020144A4FF47C
:10443000006332F81060611C2E5532F81040260AD5
:104440004C1C6E54401C9842F3DB4FF48051E81C26
:10445000FEF755FA0746611C2F55380A4E1C685462
:10446000B2B24FF0FF3329460648FFF7F7FE3A464F
:10447000314605A000F074F90DF5825DBDE8F081CC
:104480008C610020A071002053656E74202564208B
:1044900062797465732C204352433D307825303463
:1044A000580D0A00FFF7DAB810B592B0302106A80F
:1044B000FCF7FEFB142101A8FCF7FAFB0120069093
:1044C0000004079002240C9480010D9008200E90A7
:1044D0004FF4A8700F9010940720119006A8FFF7D2
:1044E00041FA0F2001900294002003904FF4A05055
:1044F0000490E0020590052101A8FFF733F912B0FE
:1045000010BD00000248016841F47001016070476D
:1045100088ED00E02DE9F04102682A4D2A4E2B4F2C
:10452000DFF8ACC02B4B4FF08048A84209D0404583
:1045300007D0B04205D0B84203D0604501D09842C0
:1045400003D122F070044A682243A8421BD04045A0
:1045500019D0B04217D0B84215D0604513D0984258
:1045600011D01D4CA0420ED01C4CA0420BD01C4CB4
:10457000A04208D01B4CA04205D01B4CA04202D048
:104580001A4CA04203D122F44074CA6822434C69F9
:1045900022F08002224302608A68C2620A68826254
:1045A000A84201D0984201D109690163012141610A
:1045B0000169C90703D0016921F001010161BDE86A
:1045C000F0810000000001400004004000080040AD
:1045D000000C004000040140004001400044014044
:1045E0000048014000180040001C0040002000402E
:1045F0003EB500251748016841F0010101600068DF
:1046000000F001000090144C4FF080402060656085
:10461000A5605120E060256165612046FFF7DEFB63
:1046200002952020019001A92046FFF78FFB20462C
:10463000FFF7FAFBE0680949401CB1FBF0F0616844
:10464000491C484300EE100A0548B8EE400A80EDC8
:10465000000A3EBD4038024048720020007A030A3A
:104660001C50002010B5806B0021C185C184FFF76C
:104670001CFC10BD01680C3151E8002F22F490722F
:1046800041E80023002BF5D10168143151E8002FD7
:1046900022F0010241E80023002BF5D1016B012932
:1046A00009D101680C3151E8002F22F0100241E8D5
:1046B0000023002BF5D1202180F842100021016356
:1046C000704710B50168CA6822F04002CA60202114
:1046D00080F84110FFF719FE002010BD10B586B01C
:1046E00000241B48016841F400310160006800F4B7
:1046F0000030009016481038016841F00101016057
:10470000006800F001000090142101A8FCF7D0FA25
:104710004FF4C060019002200290039403200490A3
:104720000720059001A90B48FEF79AFE0B480A499D
:1047300001604FF4E13141608460C46004610C2188
:1047400041618461C461FFF7C9FC06B010BD00007F
:10475000403802400000024000100140A0710020DB
:104760000FB400B5C1B043AB4FF4807101A8429AB9
:10477000FCF784FA0021009100280BDBFF2800D908
:10478000FF20002806DD82B24FF0FF3301A9034865
:10479000FFF764FD41B05DF814FB0000A07100203C
:1047A00008B590F84210222901D0022008BD826885
:1047B0004FF480539A4201D1016921B1816A9A4232
:1047C0001DD052B10BE0816A02685268C2F3080240
:1047D0000A80816A891C816209E002697AB10268F3
:1047E000526802F07F020A70816A491C8162C18DA1
:1047F000491E0904090CC18505D0002008BD0268C6
:1048000052680A70F0E70168CA6822F02002CA60A4
:104810000168CA6822F48072CA6001684A6922F09D
:1048200001024A61202180F8421000214163026B9D
:10483000012A03D0FFF7DCFC002008BD01630168FA
:104840000C3151E8002F22F0100241E80023002B28
:10485000F5D101680A68D20602D50A684968009154
:10486000818DFFF721FBE7E72DE9F0410446206841
:104870000169E26821F4405111430161A168206996
:10488000E26901436069104301432068C26849F24C
:104890000C639A430A43C26020684169A26921F40B
:1048A00040711143416133492068884202D0324946
:1048B000884202D1FFF712F801E0FEF7FFFFE1693D
:1048C0000023192764253226B1F5004F28D06168EE
:1048D0008B0F8A00A0FB0701FCF758F90146B0FBDB
:1048E000F5F07A42504301EB800006EB0010B0FB7C
:1048F000F5F000F0F002B1FBF5F002EB0012B1FBB5
:10490000F5F07B42584301EB800006EB0010B0FB52
:10491000F5F0216800F00F0010448860BDE8F081D8
:1049200061684A18A0FB07015B41FCF72FF90146BB
:10493000B0FBF5F00201B1FBF5F06FF0180358433E
:1049400001EB800006EBC000B0FBF5F000F0F800D2
:1049500002EB4002B1FBF5F0584301EB800006EB9F
:10496000C000B0FBF5F0216800F00700104488603B
:10497000D4E70000001001400014014081628285EC
:10498000C28500214164222180F84210016900297A
:1049900004D00168CA6842F48072CA6001684A693A
:1049A00042F001024A610068C16841F02001C16023
:1049B0000020704790F84110212901D00220704753
:1049C0008168B1F5805F01D1016961B1016A4A1C5A
:1049D0000262026809785160C18C491E0904090C01
:1049E000C1840AD013E0016A02680988C1F3080192
:1049F0005160016A891C0162EEE70168CA6822F011
:104A00008002CA600068C16841F04001C1600020B6
:104A100070472DE9F84304460D4617469846089E10
:104A200025E0701C23D0FEF713FEA0EB0800B04277
:104A30001BD8D6B12068C168490718D5802D16D07B
:104A4000402D14D00168C943090710D400252168FE
:104A50000968406800902046FFF70CFE082060645B
:104A600084F840500120BDE8F8830320FBE720686C
:104A7000006835EA000004D00020B842D1D0002000
:104A8000F1E70120F9E700000148FFF70FBA000045
:104A9000FC600020FEE703B401984100009850EA52
:104AA000C12018BF04204A0D18BF40F0010040F299
:104AB000FF72B2EB515F08BF40F00200012808BF4F
:104AC000052002B070470907090E002804DB00F139
:104AD000E02080F80014704700F00F0000F1E020A3
:104AE00080F8141D7047000010EE100A10B5A0F5F4
:104AF00000014FF0000CB1F1FE4F6CD200F5002127
:104B00006FF07E0202EBE153C1F302524FF07E518F
:104B100001EB025100EE901AA0EBC3500CEB030125
:104B200000EE100A51EA020036D030EE601A30EE84
:104B3000200AC1EE000A20EEA00A60EE801A9FED66
:104B40003D2A9FED3D1A3D48DFED3F2A00EE021A57
:104B5000784400EB82009FED3A2A21EE810A01EEB3
:104B6000101AD0ED001A3748B8EEC11A784400EB9D
:104B7000820041EE021A01EE101A90ED002AB8EE02
:104B8000C11A01EE222A9FED311A32EE000A00EE20
:104B9000810A31EE800A10BDF7EE000A9FED2D1A52
:104BA00070EE600A9FED2A0A00EE801A9FED2A0A35
:104BB00060EEA01A00EE810A9FED281A00EE801A1E
:104BC00021EE810A9FED261A00EE810AB5EE0B1A3E
:104BD00000EE810A10BD4FF07F41B1EB400F03D2D0
:104BE000BDE8104000F04AB8B0F1FF4F08BF10BD5B
:104BF000B5EEC00AF1EE10FA06D20120FCF788F8F3
:104C0000BDE8104000F03EB8B5EEC00AF1EE10FA73
:104C100007D10220FCF77CF800F026F8B1EE400A3C
:104C200010BDDFED100A6FF0160C20EE200A10EE1A
:104C3000100A63E7DE02323E3B3D943EE4980000FA
:104C400000209A3EE8980000FC849A36D95B5E3FCB
:104C5000924FA93D7279DEBD2D3E143ED85B5EBEFB
:104C6000157B4B3C0000004BDFED030AB7EE001A4A
:104C700081EE200A704700000000000030EE000ABC
:104C800070470000DFED020A80EEA00A70470000C6
:104C90000000000030380A2801D2012070470020AF
:104CA0007047704770474FF47A714843AFF3008004
:104CB00070B500214FF0E0256C690A4A1268504334
:104CC000AB69AA699A42FCD003D2A3EB0203194450
:104CD00003E0A4EB02063344194413468142F0D3A7
:104CE00070BD000008500020FEF7C0FCFFF7DCFBA1
:104CF000FDF778FEFFF738FBFFF77AFCFFF708FBBC
:104D0000FFF7ECFCFDF7C6FE0F4C4FF40066666043
:104D10000EA0FFF725FDFDF7A3FD144F0025627AD5
:104D200072B1314612A0FFF71BFDFFF76FFBFDF7D5
:104D300047FF20213846FEF77BFC6572FDF790FDAA
:104D40000A20FEF78AFBEAE71C50002053544D333B
:104D50003246343037204F7363696C6C6F73636F06
:104D60007065205265616479210D0A0000100240CF
:104D70004144432009636F6D706C65746521205058
:104D8000726F63657373696E672025642073616D4C
:104D9000706C65732E2E2E0D0A00000010B50029D0
:104DA0000AD00878002807D005487844FDF758F85D
:104DB000002801D0002010BD0248784410BD00003A
:104DC000B6980000AE98000010B500290AD0087807
:104DD000002807D005487844FDF742F8002801D0A4
:104DE000002010BD0248784410BD0000A6980000C5
:104DF0009E980000B1FA81F201FA02F1C2F11D029F
:104E00004FEA415003EB025303EBD12170470808EE
:104E1000A0F500114FEA3101704700001CF0700F3F
:104E200008BF0A460FB4F1EE101A0CF0405030EAF9
:104E3000814318BF4CF0804C4FEA4C0310EA814F7D
:104E40004FEAD36323EA112318BF23F0100341EA8A
:104E5000030101F0E073E1EE101A4CEA030C0CF0D0
:104E60000F030A2B1DBF082B0CF070034CEAC30C78
:104E70004FF4003304BF33EA0C034CF4400C1CF035
:104E8000005F14D11CF0805F0BD11CF0804F31D13A
:104E90001CF0006F12D111F4807F0FBC62D000F0C3
:104EA0007ABA11F4806F0FBC2BD000F074BA11F4F1
:104EB000006F0FBC08BF704700F06DBA11F4007F9F
:104EC0000FBC40F068821CF0400F1EBF4FF0004046
:104ED00040F0010070471CF0100F14BF81EA03027C
:104EE00042400CF00F000A2808BF4FF0FF324FF08D
:104EF000000326E011F4805F0FBC08BF704700F08C
:104F00004ABAF1EE103A2CF0805C1CF0800F14BF0E
:104F100001F0004200F0004212420CBF12EA336F6F
:104F200012EAF35F0DD31CF0100F1DBF30A003C8B1
:104F30001143314808BF104313F4805F40F02B82C7
:104F400070471CF0100F02F000421DBF0FF29400DA
:104F500003C81143254808BF104313F4805F40F095
:104F60001A8270471CF0400F40F028801CF4404F1C
:104F70001BD01CF4004F1CBF194610460CF4807265
:104F800018BF8CEA520C1CF0800F0CBF40F480005C
:104F900041F400218CEADC0313F0100F1CBF2CF04D
:104FA0000F0C4CF0080C00F09DB91CF0100F1ABF4C
:104FB00012A393E80300134800F094B91CF0800F8B
:104FC00014BF01F0004200F000421CF0100F1BBFA4
:104FD0000AA393E803000B48114308BF104300F0F5
:104FE00081B900BF000000000000F07F0000807F5A
:104FF000FFFFFFFFFFFFEF7FFFFF7F7F000000004D
:105000000000F87F0000C07F43004FEAD30C4FEA56
:105010003C0C43401FBF40070CF1605113F0FE4FA2
:1050200070471CF0006F14D133F0004004BF1946E4
:10503000704783EA830383EA430303F0070343EAE9
:10504000CC010CF0004303F15A5303F54013FFF772
:10505000D1BE0CF0004343EA507010B540EACC00DA
:1050600000F00FF8000000BA180000044FEA000139
:10507000FFF7CDBE4FEAE0024FEA407042F0E04158
:1050800070470EF1020E2EF0030E4FEA40025EF85A
:10509000084B12F1807218BFB2F5000F22D32442E0
:1050A00007D44FEA410313F1807318BFB3F5000F23
:1050B00018D34FEA400C1CF5000F16D2244204D43A
:1050C0004FEA410C1CF5000F0FD2002A10D14FEA15
:1050D000D07C002B0CEB4C0C0CF1020C08BF4CEB01
:1050E000D17C07E04FF0090C04E04FF0080C01E020
:1050F0004FEAD17C0CEB4C0324FA03F404F00704D0
:10510000B4F1040C06D20EEB840CBDE810404CF058
:10511000010C6047DFE80CF01F2013025EF804CC9E
:105120001B2B08D1002A88BFB2F5000F34BF4CF406
:10513000804C4CF4004CBDE81040FFF76FBE002AD5
:1051400088BFB2F1807F28BF084610BD4FF00040F5
:10515000A0F5800010BD0846420018BFD2F1807251
:1051600084BF5EF8042C22F08062BDE8104000F29B
:10517000858070474FF00000E1EE100A7047F1EEB5
:10518000101A11F0807F1CBF00F00040704711F42E
:10519000006F40F08E8000F0004343EAD05323F4C8
:1051A0008073C3F1C10323F00041172941D8C3F133
:1051B000200310FA03F1C3F1200320F07F4040F4F4
:1051C000000020FA03F003F0004340EA030019D086
:1051D0000B46F1EE101A41F00801E1EE101A11F43D
:1051E000400F1CD1590009D318BF401C06D17FEADB
:1051F000E27398BF401C38BF20F0010042F0804CA1
:10520000FFF70CBE12F0804F08BF7047F1EE101A86
:10521000944641F00801E1EE101AFFF7FFBD10F0CF
:10522000004F14BF5FEAF1535FEA316338BF401C9F
:10523000E4E7182903EB912318BF6FF00041013117
:10524000F1EE101A41F00801E1EE101A11F4400FCE
:1052500018BF03F00040E2D168BF03F0004009D658
:10526000400203F0004000F1010004BF12F0004FC3
:1052700020F001004FF0804CFFF7D0BDF1EE101A86
:1052800011F0807F1CBF00F00040704711F4006FE8
:1052900008BF704700F0004120F00040B0FA80F3F2
:1052A000A3F1080341F0C04100FA03F0A1EBC351A0
:1052B000084442F0005C00F06EB80000064A21EAA3
:1052C000020120EA0202F1EE100A20EA020282EA5A
:1052D0000102E1EE102A704760603FF6FCF753B917
:1052E000FCF788BA0CF00F03092B08BF082000F068
:1052F00064800A2B32D0082B18BF704708BF1CF0FF
:10530000400F31D01CF4803F23D11CF0200F11D16D
:105310001CF0100F0BBF02460A466FF000406FF002
:10532000004118BF4FF0FF3012F0004F1CBFC043C8
:10533000C94370471CF0100F0CBF02460A4612F01A
:10534000004F4FF0FF304FF0FF311CBFC043C94347
:1053500070474FF000004FF0000170471CF0400F05
:1053600018BF4FF0004070471CF0100F08D020F01D
:10537000704300F07F4242EAD3014FEA4370704726
:1053800000F0604021F07F4242EA000201F07F40DD
:1053900040EA727070472DE900502DE90050FCF78B
:1053A000EBFCBDE80050BDE800500CF00F0393F09B
:1053B000090F18BF7047AFF300801CF4801F24D082
:1053C0001CF4E02F09D010F0080F02D1D0F1020038
:1053D00070476FEACC31490070474FF0604111EAE5
:1053E000407028BF40F04050F1EE103A23F0704377
:1053F00043EA0003E1EE103AEFF3008222F070423C
:1054000042EA000282F3008870471CEA004018BF9D
:1054100001207047000000000000000001020304AA
:105420000607080900000000010203040006101628
:10543000000610160004000200060001000500032B
:1054400000078000800480028006800180058003C0
:1054500080074000400440024006400140054003F0
:105460004007C000C004C002C006C001C005C003A0
:10547000C007200020042002200620012005200370
:105480002007A000A004A002A006A001A005A00380
:10549000A0076000600460026006600160056003B0
:1054A0006007E000E004E002E006E001E005E00360
:1054B000E007100010041002100610011005100380
:1054C00010079000900490029006900190059003C0
:1054D00090075000500450025006500150055003F0
:1054E0005007D000D004D002D006D001D005D003A0
:1054F000D007300030043002300630013005300370
:105500003007B000B004B002B006B001B005B0037F
:10551000B0077000700470027006700170057003AF
:105520007007F000F004F002F006F001F005F0035F
:10553000F007080008040802080608010805080327
:10554000080788008804880288068801880588037F
:1055500088074800480448024806480148054803AF
:105560004807C800C804C802C806C801C805C8035F
:10557000C80728002804280228062801280528032F
:105580002807A800A804A802A806A801A805A8033F
:10559000A80768006804680268066801680568036F
:1055A0006807E800E804E802E806E801E805E8031F
:1055B000E80718001804180218061801180518033F
:1055C000180798009804980298069801980598037F
:1055D00098075800580458025806580158055803AF
:1055E0005807D800D804D802D806D801D805D8035F
:1055F000D80738003804380238063801380538032F
:105600003807B800B804B802B806B801B805B8033E
:10561000B80778007804780278067801780578036E
:105620007807F800F804F802F806F801F805F8031E
:10563000F80704000404040204060401040504033A
:10564000040784008404840284068401840584039E
:1056500084074400440444024406440144054403CE
:105660004407C400C404C402C406C401C405C4037E
:10567000C40724002404240224062401240524034E
:105680002407A400A404A402A406A401A405A4035E
:10569000A40764006404640264066401640564038E
:1056A0006407E400E404E402E406E401E405E4033E
:1056B000E40714001404140214061401140514035E
:1056C000140794009404940294069401940594039E
:1056D00094075400540454025406540154055403CE
:1056E0005407D400D404D402D406D401D405D4037E
:1056F000D40734003404340234063401340534034E
:105700003407B400B404B402B406B401B405B4035D
:10571000B40774007404740274067401740574038D
:105720007407F400F404F402F406F401F405F4033D
:10573000F4070C000C040C020C060C010C050C0305
:105740000C078C008C048C028C068C018C058C035D
:105750008C074C004C044C024C064C014C054C038D
:105760004C07CC00CC04CC02CC06CC01CC05CC033D
:10577000CC072C002C042C022C062C012C052C030D
:105780002C07AC00AC04AC02AC06AC01AC05AC031D
:10579000AC076C006C046C026C066C016C056C034D
:1057A0006C07EC00EC04EC02EC06EC01EC05EC03FD
:1057B000EC071C001C041C021C061C011C051C031D
:1057C0001C079C009C049C029C069C019C059C035D
:1057D0009C075C005C045C025C065C015C055C038D
:1057E0005C07DC00DC04DC02DC06DC01DC05DC033D
:1057F000DC073C003C043C023C063C013C053C030D
:105800003C07BC00BC04BC02BC06BC01BC05BC031C
:10581000BC077C007C047C027C067C017C057C034C
:105820007C07FC00FC04FC02FC06FC01FC05FC03FC
:10583000FC07020002040202020602010205020342
:1058400002078200820482028206820182058203AC
:1058500082074200420442024206420142054203DC
:105860004207C200C204C202C206C201C205C2038C
:10587000C20722002204220222062201220522035C
:105880002207A200A204A202A206A201A205A2036C
:10589000A20762006204620262066201620562039C
:1058A0006207E200E204E202E206E201E205E2034C
:1058B000E20712001204120212061201120512036C
:1058C00012079200920492029206920192059203AC
:1058D00092075200520452025206520152055203DC
:1058E0005207D200D204D202D206D201D205D2038C
:1058F000D20732003204320232063201320532035C
:105900003207B200B204B202B206B201B205B2036B
:10591000B20772007204720272067201720572039B
:105920007207F200F204F202F206F201F205F2034B
:10593000F2070A000A040A020A060A010A050A0313
:105940000A078A008A048A028A068A018A058A036B
:105950008A074A004A044A024A064A014A054A039B
:105960004A07CA00CA04CA02CA06CA01CA05CA034B
:10597000CA072A002A042A022A062A012A052A031B
:105980002A07AA00AA04AA02AA06AA01AA05AA032B
:10599000AA076A006A046A026A066A016A056A035B
:1059A0006A07EA00EA04EA02EA06EA01EA05EA030B
:1059B000EA071A001A041A021A061A011A051A032B
:1059C0001A079A009A049A029A069A019A059A036B
:1059D0009A075A005A045A025A065A015A055A039B
:1059E0005A07DA00DA04DA02DA06DA01DA05DA034B
:1059F000DA073A003A043A023A063A013A053A031B
:105A00003A07BA00BA04BA02BA06BA01BA05BA032A
:105A1000BA077A007A047A027A067A017A057A035A
:105A20007A07FA00FA04FA02FA06FA01FA05FA030A
:105A3000FA07060006040602060606010605060326
:105A4000060786008604860286068601860586038A
:105A500086074600460446024606460146054603BA
:105A60004607C600C604C602C606C601C605C6036A
:105A7000C60726002604260226062601260526033A
:105A80002607A600A604A602A606A601A605A6034A
:105A9000A60766006604660266066601660566037A
:105AA0006607E600E604E602E606E601E605E6032A
:105AB000E60716001604160216061601160516034A
:105AC000160796009604960296069601960596038A
:105AD00096075600560456025606560156055603BA
